:020000020000FC
:020000003FC0FF
:1000800008E00EBF0FEF0DBF0FEF01B917981698DC
:1000900011D200E10093C10006E00093C20000E02D
:1000A0000093C50003E30093C4001091C00017FF44
:1000B000FCCF8091C6003BD28A3571F0833471F059
:1000C000813471F0833571F0843471F0813579F0C9
:1000D000873579F0853481F01AD1E7CF82D1E5CF29
:1000E000D1D0E3CFF0D0E1CFD3946AD0DECFADD181
:1000F000DCCFC39403D0D9CF48D1D7CF0F93A394EB
:100100000A2D083010F412D00FC027D0002D023075
:1001100010F40CD009C0DF92CDD10F91003021F046
:10012000D3944ED00A95E1F70F9108950F93012DC6
:10013000013048F4179A119A1098109A1298129A4E
:100140001098179808C0179A149A1398139A15982C
:10015000159A139817980F910895AA24012D01302C
:1001600090F4169A149A1398139A1598159A6B2C62
:1001700063946A9409F114981398139A6A94E1F7B6
:100180001598159A19C0169A149A1398139A1598D7
:10019000159A08E014981398139A0A95E1F71598A0
:1001A000159A6B2C63946A9439F014981398139AE7
:1001B0006A94E1F71598159A139816980394089580
:1001C0000F93B3940B2D083010F412D00FC027D02A
:1001D000012D023010F40CD009C0CF926BD10F91D9
:1001E000003021F0C3948ADF0A95E1F70F9108955A
:1001F0000F93002D013048F4169A11981098109A18
:100200001298129A1098169808C0169A1498139873
:10021000139A1598159A139816980F910895BB2460
:10022000002D013090F4179A14981398139A15988A
:10023000159A5A2C53945A9409F1149A1398139AB4
:100240005A94E1F71598159A19C0179A14981398AB
:10025000139A1598159A08E0149A1398139A0A9508
:10026000E1F71598159A5A2C53945A9439F0149A28
:100270001398139A5A94E1F71598159A13981798AA
:1002800013940895CF92DF9215D1DF90DA941D2D4B
:1002900010306CF0113018F093DF1A95E9F7CF9019
:1002A0001C2D113078F02ADF1A95E9F70BC002D126
:1002B0000FE086DFD3940A95E1F70F911FDFC39417
:1002C0000A95E1F70895DF92CF92F4D0CF90CA94C7
:1002D0001C2D10306CF0113018F010DF1A95E9F772
:1002E000DF901D2D113088F06BDF1A95E9F70DC0F6
:1002F000E1D00FE003DFC3940A95E1F70F910030DE
:1003000021F05EDFD3940A95E1F7D8B808950C2D5B
:10031000003019F0D8DFB6DF07C0DF92D4DFDF90FE
:100320000D2D003039F1AEDF0C2D0F3081F4DF924E
:10033000C1D00EE0DF900D19E1DEC3940A95E1F71C
:100340000FE0DD243DDFD3940A95E1F71DC00D2DAC
:100350000F30D1F4CF92AED00EE0CF900C1930DF39
:10036000D3940A95E1F70FE0CC24C8DEC3940A9534
:10037000E1F70AC0CC24DD249DD00FE021DFD39427
:10038000BDDEC3940A95D1F70895C3940C2D0031B6
:1003900020F4B4DED39414DF06C0B0DED3940D2D68
:1003A0000031E8F40DDF0C2D003059F4DF9282D0DB
:1003B00000E1DF900D19A2DEC3940A95E1F7DD2478
:1003C0000FC00D2D003061F4CF9274D000E1CF90BA
:1003D0000C19F6DED3940A95E1F7CC2401C06AD05B
:1003E0000895D3940D2D003118F4EADE6CDF05C0BA
:1003F000E7DE0C2D003011F166DF0C2D0F3059F4C3
:10040000DF9258D0DF900D2D0A9578DEC3940A95BF
:10041000E1F7DD2419C00D2D0030B1F4CF924AD0A0
:10042000CF900C2D0395CCDED3940A95E1F70FE025
:10043000CC2464DEC3940A95E1F706C03BD00FE0FC
:100440005DDEC3940A95E1F708950D2D003021F08B
:1004500019DFC39453DE06C015DFC3940C2D0031A1
:1004600010F54CDE0D2D0F3059F4CF9223D0CF90E4
:100470000C2D0A95A5DED3940A95E1F7CC2419C07A
:100480000C2D0030B1F4DF9215D0DF900D2D0395C7
:1004900035DEC3940A95E1F70FE0DD2491DED394B5
:1004A0000A95E1F706C006D00FE08ADED3940A95DC
:1004B000E1F70895169A40E14F9311981098109A19
:1004C0001298129A4A95D1F74F9114981398139A4B
:1004D0001598159A4A95D1F71698179A40E14F93B7
:1004E000119A1098109A1298129A4A95D1F74F9132
:1004F000149A1398139A1598159A4A95D1F711984A
:100500001098109A1298129A10981798002702B90A
:10051000169A119A1098109A1298129A1098169882
:10052000AA24BB24CC24DD2400241124089535E022
:1005300024E618EC08E0000000000A95E1F71A959F
:0C054000C9F72A95B1F73A9599F708958C
:00000001FF
